:020000040000FA
:04000000E7EF7CF0BA
:10F9CE00000164EF7EF0D8900230046E0130036EB9
:10F9DE0003500118120008C001F009C002F0000E19
:10F9EE00046E0A0E036E32EC7DF001C00AF002C006
:10F9FE000BF008C001F009C002F0000E046E0A0EF2
:10FA0E00036E64EC7DF00138F00B0A101200000E4C
:10FA1E00046E000E036E26EF7DF0000E056E00F0F4
:10FA2E0000F000F000F000F0052AC70E056422EF8A
:10FA3E007DF024EF7DF016EF7DF0034A042A01508D
:10FA4E00035C02500458D8A02FEF7DF031EF7DF00B
:10FA5E0014EF7DF0120003500410D8B439EF7DF08E
:10FA6E003BEF7DF05FEF7DF0010E056E43EF7DF015
:10FA7E00D89003360436052A04AE48EF7DF04AEFDF
:10FA8E007DF03FEF7DF00350015C04500258D8A08A
:10FA9E0053EF7DF055EF7DF059EF7DF00350015E91
:10FAAE000450025AD89004320332052E4AEF7DF0EC
:10FABE0001C001F002C002F01200000E066E000E30
:10FACE00056E03500410D8B46FEF7DF071EF7DF02A
:10FADE0099EF7DF0010E076E79EF7DF0D890033629
:10FAEE000436072A04AE7EEF7DF080EF7DF075EFD1
:10FAFE007DF0D890053606360350015C045002584E
:10FB0E00D8A08CEF7DF08EEF7DF093EF7DF003505B
:10FB1E00015E0450025A0580D89004320332072E3B
:10FB2E0080EF7DF005C001F006C002F012000F6EEE
:10FB3E00000E116E000E106E10C003F00FC004F018
:10FB4E00032AACEF7DF0D8900432032EAAEF7DF09D
:10FB5E00010E041604500D6E0E6A104A112A0D0481
:10FB6E000E10D8B4BDEF7DF0BFEF7DF0CDEF7DF080
:10FB7E0011BECBEF7DF0115009E1060E105CD8A03E
:10FB8E00CBEF7DF0CDEF7DF0A3EF7DF00D500E109D
:10FB9E00D8A4D4EF7DF0D6EF7DF0DCEF7DF0000E33
:10FBAE00026E000E016E63EF7EF01006D8A01106F5
:10FBBE0010C003F00FC004F0032AE8EF7DF0D890D8
:10FBCE000432032EE6EF7DF0010E04160450056E8E
:10FBDE00066A104A112A10C003F00FC004F0032A5F
:10FBEE00FBEF7DF0D8900432032EF9EF7DF0010E7D
:10FBFE0004160450076E086A104A112A10C003F04A
:10FC0E000FC004F0032A0EEF7EF0D8900432032EBC
:10FC1E000CEF7EF0010E04160450096E0A6A104AAB
:10FC2E00112A000E0C6E000E0B6E11BE2AEF7EF026
:10FC3E00115007E1080E105CD8B028EF7EF02AEFC5
:10FC4E007EF03BEF7EF010C003F00FC004F0032AED
:10FC5E0033EF7EF0D8900432032E31EF7EF0010E9A
:10FC6E00041604500B6E0C6A05040610D8A442EF5D
:10FC7E007EF044EF7EF0D6EF7DF007040810D8A496
:10FC8E004BEF7EF04DEF7EF0D6EF7DF009040A10BB
:10FC9E00D8A454EF7EF056EF7EF0D6EF7DF00B50E9
:10FCAE000C10D8A45DEF7EF05FEF7EF0D6EF7DF006
:10FCBE00000E026E010E016E12000F0EC16EC30E0B
:10FCCE00926E3F0E936E010E946E000E956E000EA8
:10FCDE00966E000E816E000E186E070E166E000EDA
:10FCEE00176E000E836E000E026E320E016E0EEC5B
:10FCFE007DF0170E156E700E146E89EF7EF01406E1
:10FD0E00D8A0150681A88EEF7EF090EF7EF0A0EFC2
:10FD1E007EF081A695EF7EF097EF7EF0A0EF7EF05D
:10FD2E0014501510D8A49EEF7EF0A0EF7EF086EF53
:10FD3E007EF018C083FF000E026EC80E016E0EEC30
:10FD4E007DF081B6ADEF7EF0AFEF7EF0B3EF7EF0DB
:10FD5E00000E186EF0EF7FF081B8B8EF7EF0BAEFBC
:10FD6E007EF0BCEF7EF0BFEF7EF0182AA0EF7EF0A3
:10FD7E0018C083FF000E026EC80E016E0EEC7DF0F1
:10FD8E0081B6CCEF7EF0CEEF7EF0D0EF7EF0A0EF1E
:10FD9E007EF081B8D5EF7EF0D7EF7EF0D9EF7EF012
:10FDAE00DCEF7EF01806BFEF7EF018C001F0026A9D
:10FDBE00EAEC7CF0836E000E026EC80E016E0EEC45
:10FDCE007DF081B6EDEF7EF0EFEF7EF0F1EF7EF09D
:10FDDE00BFEF7EF081B8F6EF7EF0F8EF7EF0FAEF2F
:10FDEE007EF0FDEF7EF0182ADCEF7EF018C001F0F9
:10FDFE00026AEAEC7CF0836E000E026EC80E016E93
:10FE0E000EEC7DF081B60EEF7FF010EF7FF012EF6B
:10FE1E007FF0DCEF7EF081B817EF7FF019EF7FF007
:10FE2E001BEF7FF01EEF7FF01806FDEF7EF018C07F
:10FE3E0008F0096AF2EC7CF0836E000E026EC80EBA
:10FE4E00016E0EEC7DF081B62FEF7FF031EF7FF07B
:10FE5E0033EF7FF0FDEF7EF081B838EF7FF03AEFB1
:10FE6E007FF03CEF7FF03FEF7FF0182A1EEF7FF020
:10FE7E0018C008F0096AF2EC7CF0836E000E026E78
:10FE8E00C80E016E0EEC7DF081B650EF7FF052EF92
:10FE9E007FF054EF7FF01EEF7FF081B859EF7FF0C7
:10FEAE005BEF7FF05DEF7FF060EF7FF018063FEFC6
:10FEBE007FF018C083FF000E026EC80E016E0EECAE
:10FECE007DF081B66DEF7FF06FEF7FF071EF7FF019
:10FEDE003FEF7FF081B876EF7FF078EF7FF07AEF2B
:10FEEE007FF0AFEF7EF018509EEC7DF001500210C7
:10FEFE00D8A484EF7FF086EF7FF090EF7FF0000EB6
:10FF0E00186E010E181A020E181A040E181A60EF47
:10FF1E007FF018501824186E60EF7FF081B69AEFBC
:10FF2E007FF09CEF7FF09EEF7FF0F0EF7FF081B8D7
:10FF3E00A3EF7FF0A5EF7FF0A7EF7FF0A0EF7EF0AD
:10FF4E001650175CD8B0AEEF7FF0B0EF7FF0D7EF62
:10FF5E007FF017C012F0010E136E122AB9EF7FF068
:10FF6E00D8901336122EB7EF7FF01350181A18C010
:10FF7E0083FF17C012F0010E136E122AC9EF7FF025
:10FF8E00D8901336122EC7EF7FF01350181A000EAA
:10FF9E00026EC80E016E0EEC7DF0172AF0EF7FF0A8
:10FFAE0016C012F0010E136E122AE0EF7FF0D890F9
:10FFBE001336122EDEEF7FF01350181A18C083FF7F
:10FFCE00000E026EC80E016E0EEC7DF01606000ECF
:10FFDE00176E1828D8A4F6EF7FF0F8EF7FF095EFA4
:10FFEE007FF0000E186E070E166EF0EF7FF000EF2A
:02FFFE0000F011
:020000040020DA
:08000000FFFFFFFFFFFFFFFF00
:020000040030CA
:0E000000FF06181EFF8180FF0FC00FE00F40AB
:00000001FF
